:020000040800F2
:1000000028070020290200080F290008A914000869
:100010000D290008B1040008A52E0008000000000A
:10002000000000000000000000000000132900088C
:10003000B30400080000000011290008A9290008E5
:10004000430200084302000843020008430200087C
:100050004302000843020008190500084302000893
:100060001F050008250500082B05000843020008AD
:10007000430200084302000843020008430200084C
:10008000430200084302000843020008430200083C
:10009000430200084302000843020008430200082C
:1000A000430200084302000843020008430200081C
:1000B000430200084302000843020008430200080C
:1000C00043020008430200084302000843020008FC
:1000D00043020008352E00084302000843020008CE
:1000E00043020008430200084302000843020008DC
:1000F00043020008430200084302000843020008CC
:1001000043020008430200084302000843020008BB
:1001100043020008430200084302000843020008AB
:10012000430200084302000843020008430200089B
:10013000430200084302000843020008430200088B
:10014000430200084302000843020008430200087B
:10015000430200084302000843020008430200086B
:10016000430200084302000843020008430200085B
:100170004302000843020008430200080000000098
:10018000430200084302000800F002F800F03CF8C7
:100190000AA090E8000C82448344AAF10107DA45E2
:1001A00001D100F031F8AFF2090EBAE80F0013F0F8
:1001B000010F18BFFB1A43F0010318476C750000CC
:1001C0008C750000103A24BF78C878C1FAD852075D
:1001D00024BF30C830C144BF04680C6070470000C1
:1001E0000023002400250026103A28BF78C1FBD840
:1001F000520728BF30C148BF0B6070471FB502F0DF
:10020000E1FE1FBD10B510BD00F00CF91146FFF75F
:10021000F5FF02F063FE00F03EF903B4FFF7F2FFD2
:1002200003BC02F050FE000009488047094800471F
:10023000FEE7FEE7FEE7FEE7FEE7FEE7FEE7FEE796
:10024000FEE7FEE704480549054A064B70470000F3
:10025000AD29000889010008280100202807002096
:100260002803002028030020704753EA020C00F006
:1002700069802DE9F04B4FF00006002B1FBFB3FA49
:1002800083F503FA05F424FA05F65E4012BF16431F
:10029000B2FA82F502FA05F4C5F120051EBF22FA72
:1002A00005FC44EA0C04203556EA044C4FEA144499
:1002B00018BF641C4FF000084FF00009904271EB2A
:1002C000030C39D3002919BFB1FA81F701FA07F6F7
:1002D000B0FA80F700FA07F6C7F120071EBF20FA30
:1002E00007FC46EA0C062037B6FBF4FCA7EB050733
:1002F000103F07F01F0BCBF120060CFA0BFB2CFA7A
:1003000006F644BFB3460026202FA4BF5E464FF03A
:10031000000B5BEA060C08BF4FF0010B19EB0B0951
:10032000ABFB027C48EB0608C01B06FB02CC0BFBB8
:1003300003CC71EB0C01C1E70B460246414648462F
:10034000BDE8F08B13B54FF000004FF00001AFF3A4
:100350000080BDE81C4070470FB4044910B503AAE3
:10036000029800F031F810BC5DF814FB1800002072
:100370004FF0000200B5134694469646203922BF3E
:10038000A0E80C50A0E80C50B1F12001BFF4F7AF89
:10039000090728BFA0E80C5048BF0CC05DF804EB6B
:1003A000890028BF40F8042B08BF704748BF20F8D9
:1003B000022B11F0804F18BF00F8012B70477047D7
:1003C0007047704770470000074B70B50D467B447F
:1003D00000F011F80446284600F020F810B14FF064
:1003E000FF3070BD204670BDF72A000001694A1C2D
:1003F00002610878704700B58FB0CDE90131002166
:10040000059105497944CDE903101146684600F08D
:100410002EF80FB000BD0000E5FFFFFF007B00F0ED
:1004200080007047754600F03FF8AE46050069460B
:10043000534620F00700854618B020B5FFF702FFAD
:10044000BDE820404FF000064FF000074FF00008D5
:100450004FF0000B21F00701AC46ACE8C009ACE856
:10046000C009ACE8C009ACE8C0098D4670472DE969
:10047000F04106460024D6E90170F5688046304612
:1004800003E04146B847641C3046A8470028F8D12D
:100490002046BDE8F08110B50446AFF30080204649
:1004A000BDE81040FFF7B9BE00487047C400002007
:1004B000FEE7704710B50446042000F02DFE014809
:1004C000046010BD1000002070B5054600244FF4F4
:1004D0007A7603E0304600F005F8641CAC42F9D3AC
:1004E00070BD000070B54FF0E02500216C69094A2D
:1004F000AB6912685043AA699A42FCD002D2A3EBBE
:10050000020302E0A4EB020633441944134681427D
:10051000F1D370BD10000020012000F081B904204B
:1005200000F07EB9082000F07BB9102000F078B907
:1005300070B5B3F5804F05D06FF0704140F82210D0
:10054000002070BD50F82230084C2340D1E900450E
:1005500044EA05148D688E892D0245EA06458969AD
:100560002C430C431C4340F82240E9E70000F0CF45
:10057000F0B50C6850F82450114A1540D1E9012318
:10058000D1E903671A433E4332434E6932438E69D1
:100590003243CE6932430E6A32434E6A32438E6A28
:1005A0003243CE6A3243CE6B096B32430A432A434D
:1005B000082B01D142F0400240F824200020F0BD79
:1005C0008000F0FF30B500EB82004268D1E90034D2
:1005D00043EA04138C688D89240244EA05442343CA
:1005E0000C8A084D02F0404205EB045423430C7D75
:1005F0006D0105EB0464896923430B431343436096
:10060000002030BD0000F0FF90F83510022903D023
:100610008021416501207047052180F83510006870
:10062000016821F001010160002070472DE9FC47BD
:100630004A4E18244FF4FA754FF400774FF4967A27
:10064000012808D04FF48068102818D008282DD031
:10065000042853D072E06420FFF736FF2B461222A5
:100660003FA1444800F0C2FE43A0CDE9004018235A
:100670005246F0215A2002F0C9F8394612E06420AF
:10068000FFF722FF2B46102241A13A4800F0AEFEB0
:1006900044A0CDE9004018235246F0215A2002F030
:1006A000B5F84146304600F0A7F947E06420FFF76F
:1006B0000BFF2B46102240A12E4800F097FE43A0CE
:1006C000CDE9004018235246F0215A2002F09EF84E
:1006D0000022B9463946304600F095F900224746D7
:1006E0004146304600F08FF92846FFF7EDFE012223
:1006F0004946304600F087F901221BE06420FFF7ED
:10070000E3FE2B46102236A11A4800F06FFE39A0F6
:10071000CDE9004018235246F0215A2002F076F825
:10072000012217023946304600F06DF92846FFF7DE
:10073000CBFE00223946304600F065F932A0FFF7C3
:100740000BFE34A0CDE90040182352464FF48C71C3
:100750005A2002F05BF8BDE8FC870000001402405C
:10076000C4E3B0B4B5C4CAC757414B455550BCFCEF
:100770000A0D0000240000205448452057414B45F5
:1007800055502049532050524553534544000000D2
:10079000C4E3B0B4B5C4CAC74B455930BCFC0A0D5C
:1007A00000000000544845204B4559302049532053
:1007B0005052455353454400C4E3B0B4B5C4CAC70E
:1007C0004B455931BCFC0A0D00000000544845203F
:1007D0004B4559312049532050524553534544000D
:1007E000C4E3B0B4B5C4CAC74B455932BCFC0A0D0A
:1007F00000000000544845204B4559322049532001
:100800005052455353454400D6B4D0D0CDEAB1CF71
:100810000A0D0000323032312F30332F32320000D7
:10082000044910B50A68024202D00860FFF7FEFED4
:1008300010BD0000143C01402DE9F84FDFF88C9109
:10084000002209F1040A0AF1040B4FF00F080BF122
:10085000040E01260B6896403340B34271D14C68B8
:10086000022C01D0122C11D1D40800EB84073D6A70
:100870005407E40E08FA04FC25EA0C05D1F810C070
:100880000CFA04FC4CEA050CC7F820C007685400B9
:10089000032591F804C0A5400CF0030CAF430CFAFB
:1008A00004FC4CEA070CC0F800C04F68012F05D0CB
:1008B000022F03D0112F01D0122F11D18768D1F848
:1008C0000CC0AF430CFA04FC4CEA070CC0F808C09B
:1008D0004768B7430E79C6F3001696403E4346601C
:1008E000C668AE438D68A5403543C5604C68E400DA
:1008F00065D5374C256845F480452560246822F08D
:10090000030504F480440094324C2E19D6F808787C
:100910009407250F08FA05F4A7432F4CA04201D1F4
:10092000002424E02D4CA04201D101241FE02C4CD6
:10093000A04201D102241AE02A4CA04202D1032491
:1009400015E03CE0284CA04201D104240FE0274CE4
:10095000A04201D105240AE0254CA04201D1062481
:1009600005E0244CA04201D1072400E00824AC405B
:100970003C43C6F80848D9F800404D464E689C43B1
:10098000F60300D51C432C60DAF8004055464E684B
:100990009C43B60300D51C432C60DBF800405D4649
:1009A0004E689C43F60200D51C432C60DEF80040E4
:1009B00075464E689C43B60200D51C432C60521C01
:1009C000102AFFF446AFBDE8F88F0000003C01405C
:1009D0004438024000300140000002400004024060
:1009E00000080240000C02400010024000140240C7
:1009F00000180240001C0240426931EA020200D1A4
:100A00000904816170470AB1816170470904FBE7FD
:100A100001480068000C7047002004E0014880682D
:100A200070470000040000200248816802781144E9
:100A30008160704704000020094810B5016841F446
:100A400000710160016841F480610160052000F0DF
:100A500057F80F2000F006F800F024F8002010BD31
:100A6000003C024070B50D4D04464FF47A71287871
:100A7000B1FBF0F00A490968B1FBF0F000F058FB57
:100A800048B9102C07D200222146501E00F018F859
:100A900000206C6070BD012070BD000004000020CB
:100AA000000000207047002809DB00F01F02012130
:100AB00091404009800000F1E020C0F8001170472B
:100AC000F0B40E4B1B68C3F30223C3F10704042CDC
:100AD00000D904241D1D072D01D2002300E0DB1ED8
:100AE000012606FA04F56D1E0D409D409E40761EBF
:100AF000164045EA0601F0BC02F0D5B90CED00E065
:100B0000064A00F0070110684FF6FF03184040EA5C
:100B10000120034908431060704700000CED00E01D
:100B20000000FA052DE9F0470D46040065D0DFF816
:100B30001491D9F80000EFB200F00F00A84207D2DC
:100B400089F80070D9F8000000F00F00A84254D1D5
:100B500020683D4E810712D5400703D5306840F428
:100B6000E05030602078000703D5306840F46040E2
:100B700030603068A16820F0F000084330602078D1
:100B8000C0072DD0304960680839012812D00228EA
:100B900013D0032811D00968890700292DDA31689C
:100BA00021F0030101433160FFF738FF804641F235
:100BB000883A0EE009688903EFE709688901ECE7E4
:100BC000FFF72CFFA0EB0801514502D90320BDE837
:100BD000F0873068616800F00C00B0EB810FEFD156
:100BE000D9F80010484601F00F01A94207D9077053
:100BF000006800F00F00A84201D00120E7E720784C
:100C0000400705D53068E16820F4E05008433060C3
:100C10002078000706D53068216920F4604040EA5A
:100C2000C100306000F036F83168084AC1F30311A2
:100C3000515CC840064908600F20FFF713FF0020F1
:100C4000C5E70000003C024008380240CE2F0008F3
:100C5000000000200448054900680968044AC1F3FF
:100C60008221515CC84070470000002008380240D3
:100C7000DE2F00080448054900680968044AC1F3EA
:100C80004231515CC84070470000002008380240E3
:100C9000DE2F0008154810B5006810F00C0114484C
:100CA00013D0431004290FD008290ED10F4C241F54
:100CB000216801F03F022168490207D52068C0F38E
:100CC0008810A0FB030106E0184610BD2168C1F39F
:100CD0008811A1FB00010023FFF7C7FA2168C1F3C7
:100CE0000141491C4900B0FBF1F010BD0838024039
:100CF0000024F4002DE9F84F040073D02078BD4D96
:100D0000C00748D0BB4808300168C1F38101012900
:100D100008D00068C0F3810002280AD1281D0068AD
:100D2000400206D52868800335D560680028E4D0E5
:100D300031E06068B0F5803F10D0B0F5A02F286892
:100D400010D020F480302860286820F480202860AB
:100D50006068A0B1FFF762FE06460CE0286840F428
:100D60008030F4E740F480202860F7E7FFF756FE74
:100D7000801B642872D828688003F7D50BE0FFF742
:100D80004DFE064604E0FFF749FE801B6428F1D8BB
:100D900028688003F7D42078DFF85C9280074FF052
:100DA000000A3ED593480830016811F00C0F09D0B5
:100DB0000068C0F3810002280BD18E48001D006836
:100DC000400206D42868800715D5E068012809D1BB
:100DD00011E0E068B8B10120C9F80000FFF71EFE7D
:100DE000064605E003E1FFF719FE801B0228C1D883
:100DF00028688007F7D52868216920F0F80040EAC4
:100E0000C10028600DE0C9F800A0FFF707FE064604
:100E100004E0FFF703FE801B02281FD82868800724
:100E2000F7D42078000722D5724F7449606974376F
:100E300070B101200860FFF7F1FD064604E0FFF7FE
:100E4000EDFD801B022809D838688007F7D50EE031
:100E5000C1F800A0FFF7E2FD064605E081E0FFF7DC
:100E6000DDFD801B02287CD838688007F7D4207805
:100E7000400769D5DFF87CB14FF000080BF1400B5B
:100E8000DBF80000C0000CD4DBF8001041F080510A
:100E9000CBF80010DBF800004FF0010800F08050A4
:100EA0000090574F3868C0050FD4386840F4807000
:100EB0003860FFF7B3FD064604E0FFF7AFFD801B87
:100EC00002284ED83868C005F7D54A4FA068703759
:100ED00001280FD00528386810D020F001003860B4
:100EE000386820F004003860A068B0B1FFF796FDC4
:100EF00006460EE0386840F00100F4E740F00400D8
:100F00003860F7E7FFF78AFD811B41F288308142A4
:100F100065D838688007F5D50DE0FFF77FFD0646F8
:100F200006E0FFF77BFD811B41F28830814256D8F5
:100F300038688007F5D4B8F1000F05D0DBF8001051
:100F400021F08051CBF80010A069C8B329490831BD
:100F50000968C1F38101022949D00228504607D00F
:100F600000E03CE0C9F86000FFF758FD044639E0B6
:100F70004F46C9F86000FFF751FD064604E0FFF751
:100F80004DFD801B02282AD828688001F7D4D4E9B7
:100F900007010843A16A1B4A490802EB0141626A42
:100FA00041EA8211084394F82C1040EA016111488B
:100FB000001D016001203866FFF730FD044605E0A2
:100FC00013E0FFF72BFD001B022808D828688001DA
:100FD000F7D50AE0FFF722FD001B022802D9032003
:100FE000BDE8F88F28688001F4D40020F8E70120DC
:100FF000F6E700000038024000004742800E4742FA
:10100000007000400000FFFF70B515460E4604005A
:1010100003D094F8490010B107E0012070BD002012
:1010200084F84800204600F01BF804F1080120680D
:10103000FFF79EFA3146A2682068FFF7C3FAD4E9A9
:1010400001022946236BFFF773FAA168206850F864
:10105000212042F0010240F82120002070BD000054
:10106000284810B5016886B041F0010101600068B0
:1010700000F00100059023480838016841F008019C
:101080000160016801F008010591016841F010015B
:101090000160016801F010010591016841F0200133
:1010A0000160016801F020010591016841F04001F3
:1010B00001600068694600F0400005904CF2337012
:1010C00000900220019001200290032003900C2048
:1010D00004900D48FFF7B0FB4FF680700090694612
:1010E0000A48FFF7A9FB4FF480546946084800946A
:1010F000FFF7A2FB694607480094FFF79DFB06B087
:1011000010BD000038380240000C024000100240C0
:1011100000140240001802404FF0E0210428086942
:1011200003D020F004000861704740F00400FAE7A3
:1011300010B5401EB0F1807F01D3012010BD4FF0EB
:10114000E02460610F21601701F0ADFE0020A06176
:1011500007202061002010BD7047000070B50268B4
:1011600004461068D168536910F00F0F50D003F097
:10117000010501F4907635435DD0C20705D0CA055C
:1011800003D5E26B42F00102E263420705D5DA07BC
:1011900003D0E26B42F00202E263820705D5DA0770
:1011A00003D0E26B42F00402E263020705D5DA07DE
:1011B00003D0E26B42F00802E263E26B002A33D014
:1011C000800604D5880602D5204601F02FFC206851
:1011D0004069E16BC0F38010090700D428B32046B2
:1011E00001F016FC2068416949061AD5416921F0D1
:1011F00040014161606BA0B11B490165606BFFF765
:1012000003FA002810D0606B016DBDE870400847FC
:10121000830610D58B060ED52046BDE8704001F040
:1012200005BC2046FFF798FF70BD2046FFF794FFEE
:101230000020E06370BD030606D50B0604D52046EA
:10124000BDE8704001F094BD4006F3D54806F1D5E5
:10125000D168204621F04001D160202184F8391066
:1012600000F021F970BD0000012A000870B50400EB
:1012700004D094F83900002510B106E0012070BDBB
:1012800084F83850204600F023F8242084F83900F0
:101290002068C16821F40051C160204601F012FCB1
:1012A0002068016921F4904101612068416921F0C1
:1012B0002A0141612068C16841F40051C160E563C1
:1012C000202084F8390084F83A00002070BD000026
:1012D00010B586B0044614216846FFF749F818494E
:1012E0002068884229D11748016841F01001016047
:1012F000006800F01000059012481438016841F0B1
:10130000010101600068694600F0010005904FF49A
:10131000C060009002200190012002900320039001
:10132000072004900848FFF787FA002208212520AB
:10133000FFF7C6FB2520FFF7B6FB06B010BD000087
:1013400000100140443802400000024090F83A305A
:10135000202B22D1F9B1F2B190F83830012B1CD0FA
:1013600081628285C2850021C163222280F83A20F1
:1013700080F838100168CA6842F48072CA60016857
:101380004A6942F001024A610068C16841F02001E7
:10139000C1600020704701207047022070470000A4
:1013A00010B500680949884209D109A0FEF7D4FFA9
:1013B00042F2107301220B490B4800F017F8BDE808
:1013C0001040012207490848FFF7C0BF0010014044
:1013D000C4E3B7A2CBCDB5C4CAFDBEDDCAC7A3BAAC
:1013E0000000000014000020240000202DE9F84334
:1013F000044690F839001E4617460D46202850D165
:10140000A5B19FB194F8380001284AD0012084F892
:1014100038004FF00008C4F83C80212084F83900DF
:10142000FFF7FCFAA7848146E78426E00120BDE8A7
:10143000F883E08C401EE084A0684B46B0F5805FE6
:101440004FF000024FF080012046009603D001F0DB
:10145000C0FCE8B90DE001F0BCFCC8B928882168DF
:10146000C0F308004860206908B16D1C05E0AD1CA0
:1014700003E0216815F8010B4860E08C0028D8D102
:101480004B46002240212046009601F0A2FC08B104
:101490000320CCE7202084F8390084F8388000202D
:1014A000C5E70220C3E77047FEE7000030B587B00C
:1014B00014216846FEF75CFF2148016841F01001E5
:1014C0000160016801F010010591016841F001011E
:1014D000016000681B4C00F0010005901C200125F4
:1014E0008DE8310069461848FFF7A6F902200095FB
:1014F000CDE9014069461548FFF79EF90022012118
:101500000620FFF7DDFA0620FFF7CDFA00220A21B8
:101510000820FFF7D5FA0820FFF7C5FA00220A21B4
:101520000920FFF7CDFA0920FFF7BDFA0A210022B2
:101530000846FFF7C5FA0A20FFF7B5FA07B030BD35
:10154000303802400000211000100240000002402C
:1015500070B506460A4800240188458820464D4358
:10156000214601F0C1F801F093F9B1B24FF0D84033
:1015700002E0A0F88010641CAC42FAD370BD0000F9
:10158000B400002070B40C494FF430524FF428538B
:1015900088710A814FF42C544B814FF4F0754FF44D
:1015A00048768C8128B10E804D8070BC002001F0FF
:1015B00033B80D804E80F8E7B400002070B5134CAE
:1015C00006460D46608901F057F9300A01F048F9E6
:1015D0006089401C80B201F04FF9F0B201F040F98F
:1015E000A08901F049F9280A01F03AF9A089401CC4
:1015F00080B201F041F9E8B201F032F94FF0D84081
:10160000218920F87E1F428070BD0000B4000020B8
:101610002DE9F04FFF4895B00024016841F0020128
:10162000016000680EA900F0020013904FF4004022
:101630000E9001200F90109003201190F648FFF7B4
:10164000FBF8F6484FF020416A460160F4494160DA
:101650000621C0E902141021C0E904418461090295
:10166000C461C0E909418900C0E90B4189014463B3
:10167000C0E90E410F20CDE907043C200990092064
:10168000CDE9000408200D940290039407A9069464
:10169000E248FFF7B9FC55214FF4704001F002F920
:1016A0004FF20103AA21184601F0FCF84FF20204A0
:1016B0005221204601F0F6F8651C0821284601F069
:1016C000F1F8A61C0121304601F0ECF80D214FF491
:1016D000304001F0E7F80D214BF2010001F0E2F893
:1016E0000D214BF2020001F0DDF84FF436473421B2
:1016F000384601F0D7F83421781C01F0D3F83421B2
:10170000B81C01F0CFF84FF431480D21404601F0EC
:10171000C9F84BF201190D21484601F0C3F80D211B
:101720004BF2021001F0BEF84FF4374A3421504614
:1017300001F0B8F84BF2017B3421584601F0B2F8C1
:1017400034214BF2027001F0ADF800214FF4324029
:1017500001F0A8F800214BF2012001F0A3F80021CC
:101760004BF2022001F09EF824214FF4384001F0A2
:1017700099F824214BF6010001F094F824214BF64E
:10178000020001F08FF801214FF43F4001F08AF888
:101790000F214FF4334001F085F80F214BF2013057
:1017A00001F080F80F214BF2023001F07BF8342178
:1017B0004FF4394001F076F834214BF6011001F076
:1017C00071F834214BF6021001F06CF808214FF447
:1017D000354001F067F808214BF2015001F062F842
:1017E00008214BF2025001F05DF803214FF4424012
:1017F00001F058F824214FF43A4001F053F8242125
:101800004BF6012001F04EF824214BF6022001F0A6
:1018100049F800214FF43C4001F044F878214BF6A0
:10182000014001F03FF800214BF6024001F03AF888
:1018300000214FF43D4001F035F878214BF601507E
:1018400001F030F800214BF6025001F02BF8002196
:101850004FF43E4001F026F864214BF6016001F0A0
:1018600021F800214FF4514001F01CF833214DF2D2
:10187000011001F017F800214DF2021001F012F8EA
:1018800034214DF2031001F00DF800214DF2041047
:1018900001F008F83A214DF2051001F003F800219B
:1018A0004DF2061000F0FEFF4A214DF2071000F045
:1018B000F9FF00214DF2081000F0F4FF5C214DF219
:1018C000091000F0EFFF00214DF20A1000F0EAFFCE
:1018D00081214DF20B1000F0E5FF00214DF20C10BC
:1018E00000F0E0FFA6214DF20D1000F0DBFF00211B
:1018F0004DF20E1000F0D6FFE5214DF20F1000F072
:10190000D1FF01214DF2101000F0CCFF13214DF258
:10191000111000F0C7FF01214DF2121000F0C2FFBC
:1019200054214DF2131000F0BDFF01214DF21410AF
:1019300000F0B8FF82214DF2151000F0B3FF012135
:101940004DF2161000F0AEFFCA214DF2171000F054
:10195000A9FF02214DF2181000F0A4FF00214DF262
:10196000191000F09FFF02214DF21A1000F09AFFAB
:1019700001214DF21B1000F095FF02214DF21C10C9
:1019800000F090FF34214DF21D1000F08BFF02217A
:101990004DF21E1000F086FF67214DF21F1000F07F
:1019A00081FF02214DF2201000F07CFF84214DF2D6
:1019B000211000F077FF02214DF2221000F072FF9B
:1019C000A4214DF2231000F06DFF02214DF22410EE
:1019D00000F068FFB7214DF2251000F063FF0221EF
:1019E0004DF2261000F05EFFCF214DF2271000F0DF
:1019F00059FF02214DF2281000F054FFDE214DF274
:101A0000291000F04FFF02214DF22A1000F04AFF8A
:101A1000F22107E030380240000402406400002058
:101A2000040100A04DF22B1000F03CFF02214DF20A
:101A30002C1000F037FFFE214DF22D1000F032FF88
:101A400003214DF22E1000F02DFF10214DF22F102A
:101A500000F028FF03214DF2301000F023FF332166
:101A60004DF2311000F01EFF03214DF2321000F054
:101A700019FF6D214DF2331000F014FF00214FF4D7
:101A8000524000F00FFF33214DF2012000F00AFF19
:101A900000214DF2022000F005FF34214DF2032019
:101AA00000F000FF00214DF2042000F0FBFE3A217F
:101AB0004DF2052000F0F6FE00214DF2062000F068
:101AC000F1FE4A214DF2072000F0ECFE00214DF21C
:101AD000082000F0E7FE5C214DF2092000F0E2FE54
:101AE00000214DF20A2000F0DDFE81214DF20B2095
:101AF00000F0D8FE00214DF20C2000F0D3FEA6210C
:101B00004DF20D2000F0CEFE00214DF20E2000F02F
:101B1000C9FEE5214DF20F2000F0C4FE01214DF277
:101B2000102000F0BFFE13214DF2112000F0BAFE8C
:101B300001214DF2122000F0B5FE54214DF2132088
:101B400000F0B0FE01214DF2142000F0ABFE822126
:101B50004DF2152000F0A6FE01214DF2162000F0F6
:101B6000A1FECA214DF2172000F09CFE02214DF289
:101B7000182000F097FE00214DF2192000F092FE8F
:101B800002214DF21A2000F08DFE01214DF21B20A2
:101B900000F088FE02214DF21C2000F083FE34216B
:101BA0004DF21D2000F07EFE02214DF21E2000F0BD
:101BB00079FE67214DF21F2000F074FE02214DF2E4
:101BC000202000F06FFE84214DF2212000F06AFEFB
:101BD00002214DF2222000F065FEA4214DF22320C7
:101BE00000F060FE02214DF2242000F05BFEB721E0
:101BF0004DF2252000F056FE02214DF2262000F085
:101C000051FECF214DF2272000F04CFE02214DF273
:101C1000282000F047FEDE214DF2292000F042FE90
:101C200002214DF22A2000F03DFEF2214DF22B2040
:101C300000F038FE02214DF22C2000F033FEFE2190
:101C40004DF22D2000F02EFE03214DF22E2000F04B
:101C500029FE10214DF22F2000F024FE03214DF229
:101C6000302000F01FFE33214DF2312000F01AFE2B
:101C700003214DF2322000F015FE6D214DF233208C
:101C800000F010FE00214FF4534000F00BFE332112
:101C90004DF2013000F006FE00214DF2023000F05E
:101CA00001FE34214DF2033000F0FCFD00214DF225
:101CB000043000F0F7FD3A214DF2053000F0F2FD5E
:101CC00000214DF2063000F0EDFD4A214DF20730C3
:101CD00000F0E8FD00214DF2083000F0E3FD5C214A
:101CE0004DF2093000F0DEFD00214DF20A3000F027
:101CF000D9FD81214DF20B3000F0D4FD00214DF2D1
:101D00000C3000F0CFFDA6214DF20D3000F0CAFDE1
:101D100000214DF20E3000F0C5FDE5214DF20F30EF
:101D200000F0C0FD01214DF2103000F0BBFD132189
:101D30004DF2113000F0B6FD01214DF2123000F0ED
:101D4000B1FD54214DF2133000F0ACFD01214DF2F4
:101D5000143000F0A7FD82214DF2153000F0A2FDF5
:101D600001214DF2163000F09DFDCA214DF21730D1
:101D700000F098FD02214DF2183000F093FD002193
:101D80004DF2193000F08EFD02214DF21A3000F0B4
:101D900089FD01214DF21B3000F084FD02214DF23E
:101DA0001C3000F07FFD34214DF21D3000F07AFD33
:101DB00002214DF21E3000F075FD67214DF21F30FB
:101DC00000F070FD02214DF2203000F06BFD842107
:101DD0004DF2213000F066FD02214DF2223000F07C
:101DE00061FDA4214DF2233000F05CFD02214DF293
:101DF000243000F057FDB7214DF2253000F052FDA0
:101E000002214DF2263000F04DFDCF214DF227305A
:101E100000F048FD02214DF2283000F043FDDE21A4
:101E20004DF2293000F03EFD02214DF22A3000F043
:101E300039FDF2214DF22B3000F034FD02214DF23C
:101E40002C3000F02FFDFE214DF22D3000F02AFD48
:101E500003214DF22E3000F025FD10214DF22F30E0
:101E600000F020FD03214DF2303000F01BFD332146
:101E70004DF2313000F016FD03214DF2323000F00A
:101E800011FD6D214DF2333000F00CFD00214FF4B7
:101E9000544000F007FD33214DF2014000F002FDF7
:101EA00000214DF2024000F0FDFC34214DF20340D0
:101EB00000F0F8FC00214DF2044000F0F3FC3A2160
:101EC0004DF2054000F0EEFC00214DF2064000F01E
:101ED000E9FC4A214DF2074000F0E4FC00214DF2FC
:101EE000084000F0DFFC5C214DF2094000F0DAFC14
:101EF00000214DF20A4000F0D5FC81214DF20B404B
:101F000000F0D0FC00214DF20C4000F0CBFCA621EB
:101F10004DF20D4000F0C6FC00214DF20E4000F0E5
:101F2000C1FCE5214DF20F4000F0BCFC01214DF257
:101F3000104000F0B7FC13214DF2114000F0B2FC4C
:101F400001214DF2124000F0ADFC54214DF213403E
:101F500000F0A8FC01214DF2144000F0A3FC822106
:101F60004DF2154000F09EFC01214DF2164000F0AC
:101F700099FCCA214DF2174000F094FC02214DF269
:101F8000184000F08FFC00214DF2194000F08AFC4F
:101F900002214DF21A4000F085FC01214DF21B4058
:101FA00000F080FC02214DF21C4000F07BFC34214B
:101FB0004DF21D4000F076FC02214DF21E4000F073
:101FC00071FC67214DF21F4000F06CFC02214DF2C4
:101FD000204000F067FC84214DF2214000F062FCBB
:101FE00002214DF2224000F05DFCA4214DF223407D
:101FF00000F058FC02214DF2244000F053FCB721C0
:102000004DF2254000F04EFC02214DF2264000F03A
:1020100049FCCF214DF2274000F044FC02214DF253
:10202000284000F03FFCDE214DF2294000F03AFC50
:1020300002214DF22A4000F035FCF2214DF22B40F6
:1020400000F030FC02214DF22C4000F02BFCFE2170
:102050004DF22D4000F026FC03214DF22E4000F001
:1020600021FC10214DF22F4000F01CFC03214DF209
:10207000304000F017FC33214DF2314000F012FCEB
:1020800003214DF2324000F00DFC6D214DF2334042
:1020900000F008FC00214FF4554000F003FC332110
:1020A0004DF2015000F0FEFB00214DF2025000F015
:1020B000F9FB34214DF2035000F0F4FB00214DF206
:1020C000045000F0EFFB3A214DF2055000F0EAFB1E
:1020D00000214DF2065000F0E5FB4A214DF2075079
:1020E00000F0E0FB00214DF2085000F0DBFB5C212A
:1020F0004DF2095000F0D6FB00214DF20A5000F0DD
:10210000D1FB81214DF20B5000F0CCFB00214DF2B0
:102110000C5000F0C7FBA6214DF20D5000F0C2FBA1
:1021200000214DF20E5000F0BDFBE5214DF20F50A5
:1021300000F0B8FB01214DF2105000F0B3FB132169
:102140004DF2115000F0AEFB01214DF2125000F0A3
:10215000A9FB54214DF2135000F0A4FB01214DF2D4
:10216000145000F09FFB82214DF2155000F09AFBB5
:1021700001214DF2165000F095FBCA214DF2175087
:1021800000F090FB02214DF2185000F08BFB002173
:102190004DF2195000F086FB02214DF21A5000F06A
:1021A00081FB01214DF21B5000F07CFB02214DF21E
:1021B0001C5000F077FB34214DF21D5000F072FBF3
:1021C00002214DF21E5000F06DFB67214DF21F50B1
:1021D00000F068FB02214DF2205000F063FB8421E7
:1021E0004DF2215000F05EFB02214DF2225000F032
:1021F00059FBA4214DF2235000F054FB02214DF273
:10220000245000F04FFBB7214DF2255000F04AFB5F
:1022100002214DF2265000F045FBCF214DF2275010
:1022200000F040FB02214DF2285000F03BFBDE2184
:102230004DF2295000F036FB02214DF22A5000F0F9
:1022400031FBF2214DF22B5000F02CFB02214DF21C
:102250002C5000F027FBFE214DF22D5000F022FB08
:1022600003214DF22E5000F01DFB10214DF22F5096
:1022700000F018FB03214DF2305000F013FB332126
:102280004DF2315000F00EFB03214DF2325000F0C0
:1022900009FB6D214DF2335000F004FB00214FF497
:1022A000564000F0FFFA33214DF2016000F0FAFAD7
:1022B00000214DF2026000F0F5FA34214DF2036086
:1022C00000F0F0FA00214DF2046000F0EBFA3A2140
:1022D0004DF2056000F0E6FA00214DF2066000F0D4
:1022E000E1FA4A214DF2076000F0DCFA00214DF2DC
:1022F000086000F0D7FA5C214DF2096000F0D2FAD4
:1023000000214DF20A6000F0CDFA81214DF20B6000
:1023100000F0C8FA00214DF20C6000F0C3FAA621CB
:102320004DF20D6000F0BEFA00214DF20E6000F09B
:10233000B9FAE5214DF20F6000F0B4FA01214DF237
:10234000106000F0AFFA13214DF2116000F0AAFA0C
:1023500001214DF2126000F0A5FA54214DF21360F4
:1023600000F0A0FA01214DF2146000F09BFA8221E6
:102370004DF2156000F096FA01214DF2166000F062
:1023800091FACA214DF2176000F08CFA02214DF249
:10239000186000F087FA00214DF2196000F082FA0F
:1023A00002214DF21A6000F07DFA01214DF21B600E
:1023B00000F078FA02214DF21C6000F073FA34212B
:1023C0004DF21D6000F06EFA02214DF21E6000F029
:1023D00069FA67214DF21F6000F064FA02214DF2A4
:1023E000206000F05FFA84214DF2216000F05AFA7B
:1023F00002214DF2226000F055FAA4214DF2236033
:1024000000F050FA02214DF2246000F04BFAB7219F
:102410004DF2256000F046FA02214DF2266000F0F0
:1024200041FACF214DF2276000F03CFA02214DF233
:10243000286000F037FADE214DF2296000F032FA10
:1024400002214DF22A6000F02DFAF2214DF22B60AC
:1024500000F028FA02214DF22C6000F023FAFE2150
:102460004DF22D6000F01EFA03214DF22E6000F0B7
:1024700019FA10214DF22F6000F014FA03214DF2E9
:10248000306000F00FFA33214DF2316000F00AFAAB
:1024900003214DF2326000F005FA6D214DF23360F8
:1024A00000F000FA5521A01E00F0FCF9AA21184600
:1024B00000F0F8F95221204600F0F4F908212846EE
:1024C00000F0F0F90021304600F0ECF9CC21404654
:1024D00000F0E8F90021484600F0E4F9052138460B
:1024E00000F0E0F97021504600F0DCF97021584608
:1024F00000F0D8F901214FF4384000F0D3F903215E
:102500004BF6010000F0CEF903214BF6020000F07B
:10251000C9F903214BF6030000F0C4F902214FF47E
:102520003C4000F0BFF900214BF6014000F0BAF941
:1025300000214BF6024000F0B5F9D0214FF449409C
:1025400000F0B0F902214CF6011000F0ABF9502177
:102550004CF6021000F0A6F950214CF6031000F0E2
:10256000A1F950214CF6041000F09CF900214FF421
:10257000545000F097F955214FF4685000F092F94B
:102580004FF4885000F078F97820FDF7ABFF4FF456
:10259000245000F071F94FF02040D0F81C1121F0C8
:1025A0000F01C0F81C11D0F81C1121F47061C0F8A3
:1025B0001C11D0F81C1141F00301C0F81C11D0F817
:1025C0001C1141F40071C0F81C110020FEF7DAFF65
:1025D00006490120C1F8BC024FF6FF70FEF7B8FFB4
:1025E00003A0FDF7B9FE15B0BDE8F08F00804042B2
:1025F00020B1BE4C4344B5C44944BAC5CEAA353512
:102600003130C7D2D2D1B3F5CABCBBAFB3C9B9A6BA
:10261000A3A10D0A0000000000B50021082812D275
:10262000DFE800F0110406080A0C0E1080210AE011
:10263000402108E0C02106E0202104E0602102E002
:10264000A02100E0E0214FF4585041F0080100F0D3
:1026500029F9244A508900F00FF9002000F000F910
:102660005089401C80B200F007F9002000F0F8F813
:102670005089801C80B200F0FFF81088401EC0F323
:102680000F2000F0EDF85089C01C80B200F0F4F883
:102690001078401EC0B200F0E3F8908900F0ECF82A
:1026A000002000F0DDF89089401C80B200F0E4F8D2
:1026B000002000F0D5F89089801C80B200F0DCF892
:1026C0005088401EC0F30F2000F0CAF89089C01C4B
:1026D00080B200F0D1F890785DF804EB401EC0B2F3
:1026E00000F0BEB8B400002030B5104A05460C46D4
:1026F000508900F0C1F8280A00F0B2F85089401C57
:1027000080B200F0B9F8E8B200F0AAF8908900F0C1
:10271000B3F8200A00F0A4F89089401C80B200F0C1
:10272000ABF8E0B2BDE8304000F09AB8B400002049
:102730002DE9F84F82461F460E468B46580700D0BB
:10274000012000EBD700790810FB01F0203AC0B25D
:1027500002F0FF090025009047E00C2F10D0102F49
:1027600012D0182F14D0202F42D1224901EBC910CA
:102770004FF00008445D200610D51F48026811E0A4
:1027800009EB49001D4906E01D4901EB0910EFE77F
:102790001C4909EBC90001EB8000E9E70A9828B958
:1027A0001548426831465046FEF708FF6006040EA1
:1027B0001548761CB6B24088B04219D9A6EB0B007A
:1027C000B84209D10AF101001FFA80FA0E485E46AC
:1027D000018851450CD906E008F1010000F0FF081E
:1027E000B8F1080FC7D36D1CEDB200988542B4D381
:1027F000BDE8F88FA64700081C000020E62F00085F
:102800005A3400084A3A0008B40000202DE9F84F75
:10281000044600F0FF0810190D46DDE90A761FFA9C
:1028200080FA58191FFA80F94FF0000B11E0544557
:1028300002D3E819444685B24D450FD23B4629469E
:102840002046CDF800B0FFF773FF04EB570084B2C9
:10285000761C3278A2F120005E28E8D9BDE8F88F16
:1028600001B5BDF80000ADF80000BDF800004FF064
:10287000D841A1F8800008BD01B5BDF80000ADF851
:102880000000BDF800004FF0D841A1F87E0008BD5F
:1028900003484FF0D8410089A1F87E00704700003E
:1028A000B40000204FF0D84222F87E0F51807047CC
:1028B00010B586B014216846FDF75AFD114801682D
:1028C00041F02001016000680F4C00F020000590ED
:1028D00000224FF480712046FEF795F801224FF454
:1028E000C0612046FEF78FF84FF4E06100910121AE
:1028F0000220CDE90210019169462046FDF79CFFB8
:1029000006B010BD3038024000140240FEE77047A8
:102910007047704770B5214C92B00025266846F08C
:1029200080562660246804F0805411941C4C26685C
:1029300046F48046266024680DF1240C04F480449B
:1029400011940124009424040194022406948CE838
:102950000D006605CDE907616846FEF7CBF900B1C9
:10296000FEE70CA90F2081E831004FF4A0500F9032
:102970004FF48050109005210CA8FEF7D3F800B159
:10298000FEE7FEF745F841F20101884204D105480F
:10299000016841F48071016012B070BD403802409E
:1029A00000700040003C0240FEF73EB8104801684D
:1029B00041F4700101600F48016841F001010160BC
:1029C0000C4A00210832116002680B4B1A40026069
:1029D000031D0A4A1A60026822F480220260054838
:1029E0000C300160024958068039086070470000C9
:1029F00088ED00E000380240FFFFF6FE10300024B2
:102A000010B5806B0021C185C184FEF7A5FB10BD08
:102A10000168CA6822F49072CA6001684A6922F0AB
:102A200001024A61202180F83A10704710B590F8F1
:102A30003A10222901D0022010BD8168B1F5805FD3
:102A400011D00169002901681FD0496801F07F0396
:102A5000816A4A1C82620B70C18D491E0904090CEF
:102A6000C18518D02BE00269816A002A0268526889
:102A700005D0D2B20A80816A491C8162ECE7C2F3B8
:102A800008020A80816A891CF7E74A68816A4B1C40
:102A900083620A70E0E70168CA6822F02002CA6017
:102AA0000168CA6822F48072CA6001684A6922F02B
:102AB00001024A61202180F83A10FEF771FC0020E3
:102AC00010BD00002DE9F041044600680169E2688C
:102AD00021F4405111430161A1682069E269014379
:102AE0006069104301432068C26849F20C639A434D
:102AF0000A43C26020684169A26921F44071114310
:102B00004161E0696425B0F5004F974A9749206814
:102B10004FF032083FD0884201D090427CD1FEF77E
:102B2000A9F800EBC00101EB001061688900B0FB5F
:102B3000F1F6FEF79FF800EBC00101EB00106168B1
:102B40008900B0FBF1F0B0FBF5F06FF018014843DD
:102B500006EB800108EB0110B0FBF5F000F0F00689
:102B6000FEF788F800EBC00101EB001061688900F6
:102B7000B0FBF1F0B0FBF5F006EB0016FEF77AF8CB
:102B800000EBC00101EB001061688900B0FBF1F7B8
:102B9000FEF770F8D2E0884201D090423DD1FEF7B6
:102BA00069F800EBC00101EB001061684900B0FB5F
:102BB000F1F0B0FBF5F00601FEF75CF800EBC001A8
:102BC00001EB001061684900B0FBF1F7FEF752F825
:102BD00000EBC00101EB001061684900B0FBF1F0AF
:102BE000B0FBF5F06FF01801484307EB800108EBEC
:102BF000C100B0FBF5F000F0F80006EB4006FEF770
:102C000039F800EBC00101EB001061684900B0FB2E
:102C1000F1F7FEF72FF83CE055E0FEF71BF800EB6C
:102C2000C00101EB001061684900B0FBF1F0B0FB9E
:102C3000F5F00601FEF70EF800EBC00101EB001005
:102C400061684900B0FBF1F7FEF704F800EBC00142
:102C500001EB001061684900B0FBF1F0B0FBF5F04A
:102C60006FF01801484307EB800108EBC100B0FB8F
:102C7000F5F000F0F80006EB4006FDF7EBFF00EB87
:102C8000C00101EB001061684900B0FBF1F7FDF7EE
:102C9000E1FF00EBC00101EB001061684900B0FBEF
:102CA000F1F0B0FBF5F06FF01801484307EB80013D
:102CB00008EBC100B0FBF5F000F0070021683044DC
:102CC0008860BDE8F081FDF7C5FF00EBC00101EBB6
:102CD000001061688900B0FBF1F6FDF7BBFF00EB67
:102CE000C00101EB001061688900B0FBF1F0B0FB9E
:102CF000F5F06FF01801484306EB800108EB011076
:102D0000B0FBF5F000F0F006FDF7A4FF00EBC0010A
:102D100001EB001061688900B0FBF1F0B0FBF5F049
:102D200006EB0016FDF796FF00EBC00101EB00106B
:102D300061688900B0FBF1F7FDF78CFF00EBC00183
:102D400001EB001061688900B0FBF1F0B0FBF5F019
:102D50006FF01801484307EB800108EB0110B0FB4E
:102D6000F5F000F00F00A9E7001401400010014049
:102D700090F83910212901D0022070478168B1F5FF
:102D8000805F016A0BD04A1C0262026809785160B8
:102D9000C18C491E0904090CC1840ED017E00988B2
:102DA0000268C1F30801516001690029016A02D07B
:102DB000491C0162ECE7891CFBE70168CA6822F044
:102DC0008002CA600068C16841F04001C160002013
:102DD00070472DE9F0411E46174688460446069D79
:102DE0001CE0681C1AD025B1FDF718FE801BA84214
:102DF00014D92068C16821F4D071C160206841698C
:102E000021F001014161202084F8390084F83A0062
:102E1000002084F838000320BDE8F08120680168B4
:102E200038EA010004D00020B842DAD00020F3E7ED
:102E30000120F9E70148FEF791B9000024000020C5
:102E4000104810B50E4901604FF4E1314160002196
:102E500081600C22C160C0E904128161C161FEF78A
:102E600005FA4FF4FA73142207A10648FEF7BEFADA
:102E7000BDE8104001220A490248FEF767BA000087
:102E8000001001402400002020B4AEBFDA31B3F5B9
:102E9000CABCBBAFB3C9B9A6A3A10A0D000000000C
:102EA00014000020FEE70907090E002804DB00F1EA
:102EB000E02080F80014704700F00F0000F1E020DF
:102EC00080F8141D7047704703490A685206FCD504
:102ED000C2B24A6070470000001001401CB5FDF707
:102EE000ABFD072302220421A820FFF713FDA82031
:102EF000FDF7E0FAFFF7A4FFFFF7DAFCFEF7D6FADA
:102F0000FEF786FB4FF6FF70FEF722FB1D490020FF
:102F10002026DFF874904FF4C87718244FF4967584
:102F20004FF480684FF4FA7A086018A0CDE9006089
:102F300020233A4628211E20FFF768FC18A0CDE97F
:102F4000004018232A4678215A20FFF75FFC17A07B
:102F5000CDE9004018232A46A0215A20FFF756FC4D
:102F600015A0CDE9004018232A46C8215A20FFF7B2
:102F70004DFC41464846FDF73FFD5046FDF7A4FA9B
:102F8000D3E700001C000020001402404578706C5C
:102F90006F7265722053544D333246340000000086
:102FA0005446544C43442054455354004C43445FCE
:102FB00049443A3535313000323032312F30332FF9
:102FC000313900004FF04070E1EE100A7047000008
:102FD00000000000000001020304060708090000C9
:102FE00000000102030400000000000000000000D7
:102FF0000000000000003F40000000000000000052
:103000003000400030004000000009000BC03D00CF
:103010000BC03D00090018C024407FE022403180F1
:103020000000180024C01B000D8032400180038086
:103030001C4027401C80074000401000600000003A
:103040000000000000000000000000001F80204081
:1030500040200000402020401F80000000000900A8
:1030600006001F80060009000000040004003F80E5
:1030700004000400000000100060000000000000D8
:10308000000004000400040004000400000000002C
:1030900000400000000000000000002001C0060009
:1030A0003800400000001F802040204020401F804A
:1030B0000000000010403FC000400000000018C0A9
:1030C000214022402440184000001080204024402D
:1030D00024401B80000002000D0011003FC0014091
:1030E00000003C80244024402440238000001F80B6
:1030F000244024403440038000003000200027C0DA
:103100003800200000001B802440244024401B8005
:1031100000001C0022C0224022401F80000000004E
:1031200000000840000000000000000000000460F3
:10313000000000000000000004000A0011002080D0
:1031400040400900090009000900090000000000D2
:103150004040208011000A00040018002000234095
:103160002400180000001F802040274029401F40F5
:103170000000004007C039000F0001C0004020409F
:103180003FC0244024401B8000001F80204020407E
:1031900020403080000020403FC0204020401F8061
:1031A000000020403FC024402E4030C0000020409E
:1031B0003FC024402E00300000000F00108020404F
:1031C00022403380020020403FC0040004003FC082
:1031D0002040204020403FC02040204000000060B0
:1031E000202020203FC02000200020403FC024405D
:1031F0000B0030C0204020403FC020400040004035
:1032000000C03FC03C0003C03C003FC00000204065
:103210003FC00C4023003FC020001F8020402040C2
:1032200020401F80000020403FC0244024001800A0
:1032300000001F802140214020E01FA0000020400E
:103240003FC02440260019C0004018C0244024403C
:10325000224031800000300020403FC0204030003C
:10326000000020003F80004000403F802000200000
:103270003E0001C0070038002000380007C03C00B5
:1032800007C038000000204039C0060039C0204087
:1032900000002000384007C03840200000003040C7
:1032A00021C02640384020C00000000000007FE020
:1032B000402040200000000070000C00038000400F
:1032C00000000000402040207FE0000000000000DF
:1032D000200040002000000000000010001000103E
:1032E000001000100010000000004000000000006E
:1032F0000000000002800540054003C0004020009F
:103300003FC00440044003800000000003800440EC
:1033100004400640000000000380044024403FC0F9
:10332000004000000380054005400340000000000D
:1033300004401FC0244024402000000002E005504B
:1033400005500650042020403FC00440040003C044
:1033500000400000044027C00040000000000010B2
:103360000010041027E00000000020403FC0014092
:10337000070004C00440204020403FC000400040FF
:10338000000007C0040007C0040003C000000440A0
:1033900007C00440040003C0004000000380044054
:1033A000044003800000041007F004500440038030
:1033B0000000000003800440045007F000100440A7
:1033C00007C0024004000400000000000640054061
:1033D000054004C00000000004001F8004400040BD
:1033E0000000040007800040044007C000400400C3
:1033F000070004C0018006000400060001C00700A9
:1034000001C006000000044006C0010006C00440E0
:1034100000000410071004E0018006000400000012
:10342000044005C006400440000000000000040005
:103430007BE040200000000000000000FFF00000E2
:103440000000000040207BE004000000000040007D
:10345000800040002000200040000000000000002C
:10346000000000000000000000000000000000005C
:103470001FCC000C0000000000000000080030001D
:1034800060000800300060000000022003FC1E20E5
:10349000022003FC1E200220000000000E18110470
:1034A0003FFF10840C78000000000F0010840F38DC
:1034B00000C0077818840078000000780F8410C4DA
:1034C00011240E9800E400840008080068007000D1
:1034D00000000000000000000000000000000000EC
:1034E00007E01818200440020000000040022004F9
:1034F000181807E0000000000000024002400180B0
:103500000FF0018002400240000000800080008037
:103510000FF800800080008000000001000D000E08
:10352000000000000000000000000000008000809B
:10353000008000800080008000800000000C000CF3
:10354000000000000000000000000000000600185D
:1035500000600180060018002000000007F0080845
:1035600010041004080807F0000000000804080414
:103570001FFC000400040000000000000E0C1014EA
:103580001024104411840E0C000000000C181004CC
:103590001104110412880C700000000000E00320E8
:1035A000042408241FFC0024000000001F9810843D
:1035B00011041104108810700000000007F0088842
:1035C0001104110418880070000000001C00100095
:1035D00010FC13001C001000000000000E38114405
:1035E0001084108411440E38000000000700088C7D
:1035F00010441044088807F000000000000000009C
:10360000030C030C0000000000000000000000019B
:1036100001060000000000000000000000800140E2
:1036200002200410080810040000022002200220DA
:1036300002200220022002200000000010040808DE
:103640000410022001400080000000000E00120063
:10365000100C106C10800F00000003E00C1813E435
:10366000142417C4082807D000000004003C03C439
:103670001C40074000E4001C000410041FFC11045F
:10368000110411040E880070000003E00C181004EF
:103690001004100410081C10000010041FFC10047B
:1036A00010041004080807F0000010041FFC1104A7
:1036B000110417C410040818000010041FFC1104A2
:1036C000110017C010000800000003E00C181004DF
:1036D000100410441C780040000010041FFC1084EB
:1036E0000080008010841FFC1004000010041004EF
:1036F0001FFC100410040000000000030001100172
:1037000010011FFE10001000000010041FFC110427
:1037100003801464181C1004000010041FFC100423
:10372000000400040004000C000010041FFC1F0033
:1037300000FC1F001FFC1004000010041FFC0C0400
:10374000030000E010181FFC100007F00808100428
:1037500010041004080807F0000010041FFC108477
:103760001080108010800F00000007F0081810244F
:103770001024101C080A07F2000010041FFC11049A
:10378000110011C011300E0C000400000E1C1104B9
:103790001084108410441C3800001800100010041D
:1037A0001FFC100410001800000010001FF8100487
:1037B0000004000410041FF8100010001E0011E0A7
:1037C000001C007013801C0010001FC0103C00E0A3
:1037D0001F0000E0103C1FC000001004180C16343D
:1037E00001C001C01634180C100410001C00130492
:1037F00000FC13041C00100000000804101C1064DE
:10380000108413041C0410180000000000000000C5
:103810007FFE4002400240020000000030000C0029
:1038200003800060001C0003000000004002400212
:1038300040027FFE000000000000000000002000A9
:103840004000400040002000000000010001000195
:1038500000010001000100010001000040004000E3
:10386000200000000000000000000000009801247B
:1038700001440144014400FC000410001FFC0088C6
:10388000010401040088007000000000007000883E
:103890000104010401040088000000000070008899
:1038A0000104010411081FFC0004000000F8014499
:1038B00001440144014400C8000000000104010467
:1038C0000FFC1104110411001800000000D601299A
:1038D0000129012901C90106000010041FFC008410
:1038E00001000100010400FC0004000001041904AF
:1038F00019FC0004000400000000000000030001A7
:103900000101190119FE0000000010041FFC002431
:10391000004001B4010C0104000000001004100478
:103920001FFC0004000400000000010401FC01046D
:10393000010001FC0104010000FC010401FC008401
:1039400001000100010400FC0004000000F8010473
:1039500001040104010400F80000010101FF0085D9
:10396000010401040088007000000000007000885D
:1039700001040104010501FF00010104010401FC2F
:1039800000840104010001800000000000CC01243B
:10399000012401240124019800000000010001001D
:1039A00007F80104010400000000010001F8000410
:1039B00000040004010801FC000401000180017002
:1039C000000C001001600180010001F0010C0030CA
:1039D00001C00030010C01F0010000000104018C65
:1039E00000740170018C010400000101018101716A
:1039F000000E001801600180010000000184010C2C
:103A0000013401440184010C0000000000000000AA
:103A1000000001003EFC40024002000000000000E7
:103A20000000FFFF00000000000000004002400214
:103A30003EFC01000000000000000000600080006B
:103A40008000400040002000200000000000000036
:103A50000000000000000000000000000000000066
:103A60000000000000000000000000000000000056
:103A7000000000000000000000000000000F80387F
:103A80000FFE380F8038000000000000000000002A
:103A900000000000000000000100000600000C0013
:103AA000003800003100000600000C000038000063
:103AB0003000000000000000000061800067F8078F
:103AC000F980006180006180006180006180006792
:103AD000F807F9800061800000000000000000008D
:103AE00001C0E003E0F00630080418081FFFFE04E0
:103AF0000E080787F00381E000000000000001F0DD
:103B000000060C00040408060C7001F9C0000E0049
:103B1000003BE000EC18070808040C180003E00064
:103B200000000001E00007F003F818041C08041767
:103B30000807E1D003C0E00023B0003C08002008E3
:103B40000000100000000000000100003100003201
:103B500000001C0000000000000000000000000049
:103B60000000000000000000000000000000000055
:103B7000000000000000000000007F0001FFC007FF
:103B800080F00C001810000420000200000000006B
:103B9000002000021000040C00180780F001FFC094
:103BA000007F000000000000000000000000000096
:103BB0000000000000004200006600006600003CBB
:103BC0000000180003FFC0001800003C0000660061
:103BD000006600004200000000000800000800002D
:103BE000080000080000080001FFC00008000008ED
:103BF00000000800000800000800000000000001AC
:103C000000003100003200001C0000000000000035
:103C100000000000000000000000000000000000A4
:103C2000000008000008000008000008000008006C
:103C3000000800000800000800000800000800005C
:103C40000000000000000000000038000038000004
:103C5000380000000000000000000000000000002C
:103C600000000000000000000000000600001C0032
:103C70000070000180000E0000380000C000070046
:103C8000001C0000300000000000000000007F80E9
:103C900001FFE00380700600180400080400080615
:103CA000001803807001FFE0007F8000000000002A
:103CB0000000000001000801000801000803FFF8EF
:103CC00007FFF800000800000800000800000000DE
:103CD000000000000001C03802C058040098040130
:103CE00018040218040418061C1803F81801E0F858
:103CF00000000000000000000001C0E003C0F0046C
:103D0000000804080804080806180803F41801E766
:103D1000F00001E0000000000000000000000300CF
:103D2000000D000011000061000081080301080778
:103D3000FFF80FFFF8000108000108000000000074
:103D4000000000E007FCD00608080610080610086E
:103D5000061008061838060FF00607C0000000001D
:103D60000000000000003F8001FFE00384300208F3
:103D700018041008041008041008071810030FF0A6
:103D80000007C000000000000000000003C00007A2
:103D900000000600000600F80607F806180006E016
:103DA0000007000006000000000000000001E1E044
:103DB00003F7F0063410041808041808040C08046B
:103DC0000C0806161803F3F001C1E0000000000023
:103DD0000000F80003FC300306380402080402085F
:103DE0000402080404100308F001FFC0007F000073
:103DF00000000000000000000000000000000000C3
:103E000000007038007038007038000000000000BA
:103E100000000000000000000000000000000000A2
:103E2000000000000000301A00301C0000000000FC
:103E30000000000000000000000000000000000082
:103E400000080000140000220000410000808001F2
:103E500000400200200400100800080000000000DC
:103E600000002100002100002100002100002100AD
:103E7000002100002100002100002100002100009D
:103E8000000000000000000008000804001002000C
:103E9000200100400080800041000022000014004A
:103EA00000080000000000000003C00004C000047F
:103EB0000000080038080F380808380810000C30D7
:103EC0000007E00003C000000000000000003F8089
:103ED00000FFE0038070020F1006708804C08804A1
:103EE0008308047F8802C09003012000FE40000088
:103EF000080000180001F8003E0801C20007020097
:103F000007E20000FE00001FC80001F800003800B2
:103F1000000804000807FFF807FFF8040808040871
:103F20000804080804080806180803F41801E7F054
:103F30000001E0000000000000003F8001FFE003FE
:103F4000807002001804000804000804000804003F
:103F5000100600200780C000000004000807FFF8DA
:103F600007FFF80400080400080400080400180211
:103F7000001003807001FFE0007F8000000004005B
:103F80000807FFF807FFF8040808040808040808F1
:103F9000040808043E080400080600180100600038
:103FA000000004000807FFF807FFF80408080408E9
:103FB00000040800040800043E000600000600009B
:103FC000018000000000000000003F8001FFE003CE
:103FD00080700600180400080402080402080203A6
:103FE000F00783F000020000020004000807FFF859
:103FF00007FFF80408080008000008000008000097
:10400000080004080807FFF807FFF804000800008C
:104010000000000004000804000804000807FFF87E
:1040200007FFF8040008040008040008000000006E
:10403000000000000000000600000700000104006E
:104040000104000104000307FFFE07FFFC04000059
:1040500004000004000004000807FFF807FFF8044C
:104060000C08001800003E0004C7800503C80600C5
:10407000F804003804001800000804000807FFF8DE
:1040800007FFF8040008000008000008000008000E
:104090000008000008000018000060000000040094
:1040A0000807FFF807800807FC00007FC00003F83E
:1040B0000007C000780007800807FFF807FFF80432
:1040C000000804000807FFF807000803C00000E02C
:1040D00000003800001E000007000001C00400F0CE
:1040E00007FFF8040000000000007F8001FFE003EC
:1040F0008070060018040008040008060018030079
:104100003001FFE0007F8000000004000807FFF896
:1041100007FFF80404080404000404000404000475
:104120000400060C0003F80001F00000000000008D
:1041300000007F8001FFE003807006008804008893
:104140000400C806003C03003E01FFE6007F840037
:10415000000004000807FFF807FFF8040808040837
:1041600000040C00040F00040BC00610F003F0382C
:1041700001E00800000800000001E0F803F030064C
:104180003010041808041808040C08040C0802066F
:10419000180207F00781E00000000180000600001F
:1041A00004000004000004000807FFF807FFF804FB
:1041B0000008040000040000060000018000040064
:1041C0000007FFE007FFF0040018000008000008E7
:1041D00000000800000800000804001007FFE004C9
:1041E000000004000006000007E00007FE00041FB6
:1041F000E00001F80000380001E0043E0007C000C4
:1042000006000004000004000007E00007FFC004EF
:104210001FF80007C007F80007FF80043FF80007F9
:10422000C004F800070000040000000000040008BB
:1042300006001807C07805F1C8003E00001F800482
:1042400063E80780F8060018040008000000040076
:104250000006000007800007E008047C08001FF843
:104260000007F800180804E0080700000600000432
:1042700000000000000100080600380400F80403F4
:10428000E8040F08047C0805F00807C008070018B8
:1042900004006000000000000000000000000000BA
:1042A00000000000003FFFFE20000220000220006E
:1042B00002200002200002000000000000000000B8
:1042C00008000007000000C00000380000060000E1
:1042D00001C000003000000E0000010000000000DE
:1042E0000000000020000220000220000220000246
:1042F0002000023FFFFE0000000000000000000060
:104300000000000000000000000000080000100095
:104310000030000020000030000010000008000005
:10432000000000000000000001000001000001008A
:104330000001000001000001000001000001000078
:104340000100000100000100000100000000000069
:1043500000000020000020000010000010000000FD
:10436000000000000000000000000000000000004D
:10437000000000F00019F8001B18002208002608B1
:10438000002408002410003FF8001FF80000080077
:10439000001800000004000007FFF80FFFF00018ED
:1043A00018001008002008002008003018001FF036
:1043B000000FC00000000000000007C0001FF00058
:1043C0001830002008002008002008003C08001CCD
:1043D000100000600000000000000000000007C0A6
:1043E000001FF000381800200800200800200804F2
:1043F000101007FFF80FFFF0000010000000000091
:10440000000000000007C0001FF00012300022185A
:10441000002208002208003208001E10000E2000B2
:10442000000000000000200000200800200801FF1C
:10443000F803FFF8062008042008042008072000DD
:1044400003000000000000000000000E000E6E00DF
:104450001FF30031B10020B10020B1003191001FE5
:1044600013002E1E00200E00300000000004000883
:1044700007FFF80FFFF800100800200000200000E0
:104480002008003FF8001FF80000080000000000AE
:1044900000000000002008002008002008063FF867
:1044A000063FF800000800000800000800000000B7
:1044B00000000000000000000000030000030020D6
:1044C00001002001002003063FFE063FFC00000023
:1044D00000000000000000000004000807FFF80FC3
:1044E000FFF8000188000300002FC00038F800200A
:1044F0003800200800000800000000000000000054
:1045000004000804000804000807FFF80FFFF80083
:104510000008000008000008000000000000002063
:1045200008003FF8003FF8001008002000003FF8A6
:10453000003FF8001008002000003FF8003FF8009E
:104540000008000000002008003FF8003FF80010BD
:1045500008001000002000002008003FF8001FF8AD
:104560000000080000000000000007C0000FF0007D
:10457000183000300800200800200800300800181B
:1045800030000FF00007C000000000000000200114
:10459000003FFF003FFF001011002009002008002D
:1045A0002008003038001FF0000FC000000000009D
:1045B000000007C0001FF000381800200800200885
:1045C000002009001011001FFF003FFF0000010044
:1045D0000000002008002008002008003FF8003FED
:1045E000F800080800100800200800200000300033
:1045F000003000000000000000000000000C780007
:104600001E1800330800230800210800218800211B
:10461000980030F00038600000000000000020002A
:1046200000200000200000FFF003FFF80020080039
:1046300020080020080000300000000000000000FA
:1046400000002000003FF0007FF800001800000884
:10465000000008002010003FF8007FF0000010006C
:104660000000000000002000003000003C00003F7F
:10467000800023F0000078000070002380003C00E0
:10468000003000002000002000003C00003FE0005F
:1046900023F80000E0002700003E00003FE000217A
:1046A000F80001E0003E00002000000000002008AB
:1046B000002008003838003E680027800003C8004A
:1046C0002CF80038380020180020080000000000F6
:1046D00000002000003003003C01003F830023EC79
:1046E000000070002380003C00002000002000003B
:1046F0000000000000000000003808002038002002
:10470000F80023E8002F88003E0800380800201831
:104710000000700000000000000000000000000029
:1047200000000000000008000014001FF7FC30002B
:104730000620000200000000000000000000000051
:10474000000000000000000000000000FFFFFF006C
:104750000000000000000000000000000000000059
:10476000000000002000023000061FF7FC001400CB
:104770000008000000000000000000000000000031
:104780000000000000180000600000400000400031
:1047900000200000100000080000040000040000D9
:1047A0000C000010000000000000000000000000ED
:1047B00000000000000000000000000000000000F9
:1047C00000000000000000000000000000000000E9
:1047D00000000000000000000000000000000000D9
:1047E00000000000000000000000000000000000C9
:1047F00000000000000000000000000000000000B9
:1048000000000000000000000000000000000000A8
:104810000000000000000000000000000000000098
:104820000000000000000000000000000000000088
:10483000000000000000000000000000000007F081
:1048400000C007FFE1E007F001E0000000C0000049
:104850000000000000000000000000000000000058
:104860000000000000000000000000000000000048
:104870000000000000000000000000000000000038
:104880000000000000000000000000000000000028
:104890000000000000000000000000000000000018
:1048A00000000000000000000000000000000020E8
:1048B000000001C00000078000001F0000001E0073
:1048C00000001C20000001C00000078000001F0045
:1048D00000001E0000001C0000000000000000009E
:1048E00000000000000000000000000000000000C8
:1048F00000000000000000000000000000000000B8
:1049000000000000000000000000000000000000A7
:104910000000000000000000000000000000000097
:104920000000000000000000000000180C0000184B
:104930000C0000180FE0001FFC0003F80C0000182A
:104940000C0000180C0000180C0000180C000018D7
:104950000FE0001FFC0003F80C0000180C0000180A
:104960000C0000000000000000000000000000003B
:104970000000000000000000000000000000000037
:104980000000000000000000000000000000000027
:104990000000000000000000000000000000000017
:1049A0000000000000000000000000000000000007
:1049B0000780007807C000FC0640010E00200307B6
:1049C0000020020380200FFFFFFC0201C020020034
:1049D000E0600130704001F03F8000F01F000000F7
:1049E00000000000000000000000000000000000C7
:1049F00000000000000000000000000000000000B7
:104A000000000000000000000000000000000000A6
:104A10000000000000000000000000000000000096
:104A200000000000000000FE000001FF0000030184
:104A3000800002008060030181C001FF070000FECA
:104A400018000000E0000003BF00000CFFC0007170
:104A5000806001C10020030180600000FFC00000F1
:104A60003F00000000000000000000000000000007
:104A70000000000000000000000000000000000036
:104A80000000000000000000000000000000000026
:104A90000000000000000000000000000000000016
:104AA00000000000000000001F0000007FC000FCAC
:104AB000C0C001FF80600303E020020278200206EC
:104AC0001E2003FC074001F00380000103C0000129
:104AD0001C600001E02000010020000100400000F7
:104AE0000180000000000000000000000000000045
:104AF00000000000000000000000000000000000B6
:104B000000000000000000000000000000000000A5
:104B10000000000000000000000000000000000095
:104B200000000000000000000000002000001C60E9
:104B300000001C4000001F8000000F00000000006B
:104B40000000000000000000000000000000000065
:104B50000000000000000000000000000000000055
:104B60000000000000000000000000000000000045
:104B70000000000000000000000000000000000035
:104B80000000000000000000000000000000000025
:104B90000000000000000000000000000000000015
:104BA0000000000000000000000000000000000005
:104BB00000000000000000000000000000000000F5
:104BC00000000007F800003FFF00007807C001C0A8
:104BD00000E003000030040000080800000410009A
:104BE00000020000000000000000000000000000C3
:104BF00000000000000000000000000000000000B5
:104C000000000000000000000000000000000000A4
:104C10000000000000000000000000000000000094
:104C2000000000000000000000001000000208006A
:104C30000004040000080300003001C000E0007818
:104C400007C0003FFF000007F80000000000000060
:104C50000000000000000000000000000000000054
:104C60000000000000000000000000000000000044
:104C70000000000000000000000000000000000034
:104C80000000000000000000000000000000000024
:104C90000000000000000000000000000000000014
:104CA0000000000000000000000000000000000CF8
:104CB0001800000E3800000E380000063000000317
:104CC00060000061438000FFFF800061430000033B
:104CD000600000063000000E3800000E3800000CA6
:104CE00018000000000000000000000000000000AC
:104CF00000000000000000000000000000000000B4
:104D000000000000000000000000000000000000A3
:104D10000000000000000000000000000000000093
:104D20000000000000000000000000000000000083
:104D30008000000080000000800000008000000073
:104D4000800000008000007FFF0000008000000065
:104D50008000000080000000800000008000000053
:104D600080000000000000000000000000000000C3
:104D70000000000000000000000000000000000033
:104D80000000000000000000000000000000000023
:104D90000000000000000000000000000000000013
:104DA0000000000000000000000000000001000002
:104DB00000E3000000E2000000FC000000780000BA
:104DC00000000000000000000000000000000000E3
:104DD00000000000000000000000000000000000D3
:104DE00000000000000000000000000000000000C3
:104DF00000000000000000000000000000000000B3
:104E000000000000000000000000000000000000A2
:104E10000000000000000000000000000000000092
:104E20000000000000000000000000008000000002
:104E30008000000080000000800000008000000072
:104E40008000000080000000800000008000000062
:104E50008000000080000000800000008000000052
:104E600080000000000000000000000000000000C2
:104E70000000000000000000000000000000000032
:104E80000000000000000000000000000000000022
:104E90000000000000000000000000000000000012
:104EA0000000000000000000000000000000000002
:104EB00000C0000001E0000001E0000000C00000B0
:104EC00000000000000000000000000000000000E2
:104ED00000000000000000000000000000000000D2
:104EE00000000000000000000000000000000000C2
:104EF00000000000000000000000000000000000B2
:104F000000000000000000000000000000000000A1
:104F10000000000000000000000000000000000091
:104F2000000000000000000000000000000C000075
:104F30000038000000E00000038000000E000000C8
:104F400038000000E00000038000000E0000003880
:104F5000000000E00000038000000E0000001800C8
:104F60000000000000000000000000000000000041
:104F70000000000000000000000000000000000031
:104F80000000000000000000000000000000000021
:104F90000000000000000000000000000000000011
:104FA0000000000000000000000000000000000FF2
:104FB000F800007FFF0000F00780018000C00300C0
:104FC0000060020000200200002002000020030018
:104FD0000060018000C000E00380007FFF00000F40
:104FE000F8000000000000000000000000000000C9
:104FF00000000000000000000000000000000000B1
:1050000000000000000000000000000000000000A0
:105010000000000000000000000000000000000090
:105020000000000000000000000000000000000080
:105030000000008000200080002000800020008010
:10504000006001FFFFE003FFFFE0000000600000E0
:1050500000200000002000000020000000000000F0
:105060000000000000000000000000000000000040
:105070000000000000000000000000000000000030
:105080000000000000000000000000000000000020
:105090000000000000000000000000000000000010
:1050A0000000000000000000000000000000007888
:1050B00000E000980160010002600200046002004C
:1050C00008600200106002002060020040600300DF
:1050D00080600183006001FE00E0007C078000002A
:1050E00000000000000000000000000000000000C0
:1050F00000000000000000000000000000000000B0
:10510000000000000000000000000000000000009F
:10511000000000000000000000000000000000008F
:10512000000000000000000000000000000000F08F
:10513000078001F007C001000040020000200201CA
:1051400000200201002002010020030380200186CC
:10515000804001FCC0C000787F8000001E0000007D
:10516000000000000000000000000000000000003F
:10517000000000000000000000000000000000002F
:10518000000000000000000000000000000000001F
:10519000000000000000000000000000000000000F
:1051A00000000000000000000000000008000000F7
:1051B0003800000048000001880000060800000CCC
:1051C0000810003008100040081001FFFFF003FF36
:1051D000FFF003FFFFF000000810000008100000BF
:1051E00008100000000000000000000000000000A7
:1051F00000000000000000000000000000000000AF
:10520000000000000000000000000000000000009E
:10521000000000000000000000000000000000008E
:10522000000000000000000000000000000000007E
:105230000780001F864003E10020030200200304D2
:1052400000200304002003040020030400200306C0
:105250000040030301C00301FF8003007E00000043
:10526000000000000000000000000000000000003E
:10527000000000000000000000000000000000002E
:10528000000000000000000000000000000000001E
:10529000000000000000000000000000000000000E
:1052A00000000000000000000000000000000007F7
:1052B000FC00003FFF000070C380008180C001013E
:1052C000006003020020020200200202002002020D
:1052D00000200203004001C180C000C0FF80000028
:1052E0007E00000000000000000000000000000040
:1052F00000000000000000000000000000000000AE
:10530000000000000000000000000000000000009D
:10531000000000000000000000000000000000008D
:10532000000000000000000000000000000000F08D
:10533000000003C000000380000003000000030021
:1053400007E003003FE00301C0000306000003186C
:105350000000036000000380000003000000000064
:10536000000000000000000000000000000000003D
:10537000000000000000000000000000000000002D
:10538000000000000000000000000000000000001D
:10539000000000000000000000000000000000000D
:1053A0000000000000000000000000001F00007866
:1053B0003F8000FC60C0018EC040030780200203D4
:1053C000002002018020020180200201C020030190
:1053D000E040018670C000FC3F8000781F000000A4
:1053E00000000000000000000000000000000000BD
:1053F00000000000000000000000000000000000AD
:10540000000000000000000000000000000000009C
:10541000000000000000000000000000000000008C
:1054200000000000000000000000003F000000FF3E
:1054300081C001C0C1C00100602002002020020024
:1054400020200200202002002060020040C0010055
:10545000C18000C18F00007FFE00001FF00000002F
:10546000000000000000000000000000000000003C
:10547000000000000000000000000000000000002C
:10548000000000000000000000000000000000001C
:10549000000000000000000000000000000000000C
:1054A00000000000000000000000000000000000FC
:1054B00000000000000000000000000000000003E9
:1054C00000C0000781E0000781E0000300C0000089
:1054D00000000000000000000000000000000000CC
:1054E00000000000000000000000000000000000BC
:1054F00000000000000000000000000000000000AC
:10550000000000000000000000000000000000009B
:10551000000000000000000000000000000000008B
:10552000000000000000000000000000000000007B
:105530000000000000000000000000000000000665
:105540000066000600780000000000000000000077
:10555000000000000000000000000000000000004B
:10556000000000000000000000000000000000003B
:10557000000000000000000000000000000000002B
:10558000000000000000000000000000000000001B
:10559000000000000000000000000000000000000B
:1055A00000000000000000000000000000000000FB
:1055B00080000001C0000003600000063000000C05
:1055C000180000180C00003006000060030000C046
:1055D00001800100004002000020040000100000D3
:1055E00000000000000000000000000000000000BB
:1055F00000000000000000000000000000000000AB
:10560000000000000000000000000000000000009A
:10561000000000000000000000000000000000008A
:105620000000000000000000000000041000000462
:10563000100000041000000410000004100000041A
:10564000100000041000000410000004100000040A
:1056500010000004100000041000000410000004FA
:10566000100000000000000000000000000000002A
:10567000000000000000000000000000000000002A
:10568000000000000000000000000000000000001A
:10569000000000000000000000000000000000000A
:1056A00000000000000000000000000000000400F6
:1056B0000010020000200100004000C001800060D6
:1056C00003000030060000180C00000C1800000653
:1056D0003000000360000001C000000080000000F6
:1056E00000000000000000000000000000000000BA
:1056F00000000000000000000000000000000000AA
:105700000000000000000000000000000000000099
:105710000000000000000000000000000000000089
:105720000000000000000000000000000000007801
:10573000000001F800000238000002000000040030
:1057400000C0040079E0040081E0040100C004030B
:105750000000020200000306000001FC000000F847
:105760000000000000000000000000000000000039
:105770000000000000000000000000000000000029
:105780000000000000000000000000000000000019
:105790000000000000000000000000000000000009
:1057A00000000000000000000000000FF800003FB3
:1057B000FE000070078000C000C00101F840030730
:1057C000FC20021E04200230082002203020023F6C
:1057D000FC20013F044001800CC000E03180001F2C
:1057E000C2000000000000000000000000000000F7
:1057F00000000000000000000000000000000000A9
:105800000000000000000000000000000000000098
:105810000000000000000000000000000000000088
:1058200000000000000000000020000000600000F8
:1058300003E000003E200003E020003E200003E0E3
:1058400020000380200007FC2000003FE000000350
:10585000FE2000003FE0000001E00000002000000A
:105860000020000000000000000000000000000018
:105870000000000000000000000000000000000028
:105880000000000000000000000000000000000018
:105890000000000000000000000000000000000008
:1058A00000000000000000000000020000200200D4
:1058B000002003FFFFE003FFFFE0020100200201E0
:1058C0000020020100200201002002010020030349
:1058D00000200186806001FCC0C000F87F800000CD
:1058E0001F00000000000000000000000000000099
:1058F00000000000000000000000000000000000A8
:105900000000000000000000000000000000000097
:105910000000000000000000000000000000000087
:10592000000000000000000000000007F800003F39
:10593000FF000070078000C000C0010000400300AD
:1059400000200200002002000020020000200200CF
:10595000002001000040018000C003C00180003031
:105960000600000000000000000000000000000031
:105970000000000000000000000000000000000027
:105980000000000000000000000000000000000017
:105990000000000000000000000000000000000007
:1059A00000000000000000000000020000200200D3
:1059B000002003FFFFE003FFFFE0020000200200E1
:1059C000002002000020020000200300006001000F
:1059D0000040018000C000F00780007FFE00000F43
:1059E000F8000000000000000000000000000000BF
:1059F00000000000000000000000000000000000A7
:105A00000000000000000000000000000000000096
:105A10000000000000000000000000000000000086
:105A20000000000000000000000002000020020052
:105A3000002003FFFFE003FFFFE00201002002015E
:105A400000200201002002010020020100200203C8
:105A50008020020FE0200300006003C000E000602F
:105A60000300000000000000000000000000000033
:105A70000000000000000000000000000000000026
:105A80000000000000000000000000000000000016
:105A90000000000000000000000000000000000006
:105AA00000000000000000000000020000200200D2
:105AB000002003FFFFE003FFFFE0020100200201DE
:105AC00000200201000002010000020100000201AA
:105AD000000002038000030FE0000300000003C089
